:020000040000FA
:1000000080314D28013401347E1480318B1320005F
:10001000111D0B280C283B28250013080F39053A21
:10002000031D132814281F2820009601970125007E
:100030001308F03904389300200011114A282000D9
:100040001708F1001608F0000630F136F00C890BA5
:10005000252870082100B4007108B500B601B70169
:1000600020009601970125001308F0390538930008
:10007000200011114A28111C3E283F284328FA016C
:10008000FA0A11104A280B1D462847284A28210041
:10009000C4010B118B177E10090080314F2880316D
:1000A00002208031FA00803103208031FB008F3143
:1000B000CC278031EF00D33084008F308500BC30F6
:1000C00086000030870009308F31CD278031210034
:1000D000B001B101B201B301B401B501B601B7017C
:1000E000B801B901BA01BB017E1020008731EA2FA7
:1000F000200029088039AE002E08B3002935AE0053
:100100002E08B900A81F85288628872839143908A1
:1001100003198B288C289B28390A031D90289128C5
:1001200099280030A9000030A8000030A700003056
:10013000A600A817A3280030A9000030A8000030AE
:10014000A7000030A6002D088039AE002E08B306A7
:100150002D35AE002E08B400AC1FAF28B028B12852
:10016000341434080319B528B628C528340A031DE9
:10017000BA28BB28C3280030AD000030AC000030E6
:10018000AB000030AA00AC17CD280030AD00003025
:10019000AC000030AB000030AA0034080319D128AD
:1001A000D228D7283908031DD628D728E0280030C0
:1001B000A9000030A8000030A7000030A600CE2A19
:1001C0002608AE002E08F2002C088F31DC27803183
:1001D00073082000BF007208BE003E08AE00AF01E9
:1001E000B001B1013108B8003008B7002F08B600DF
:1001F0002E08B5003F08AE00AF01B001B1013108D3
:10020000BD003008BC002F08BB002E08BA0027082C
:10021000AE002E08F2002B088F31DC2780317308E6
:100220002000BF007208BE003E08AE00AF01B00162
:10023000B1012E08B5072F08B63D3008B73D31088B
:10024000B83D3F08AE00AF01B001B1012E08BA07BA
:100250002F08BB3D3008BC3D3108BD3D2808AE002D
:100260002E08F2002A088F31DC2780317308200025
:10027000BF007208BE003E08AE00AF01B001B10180
:100280002E08B5072F08B63D3008B73D3108B83DF8
:100290003F08AE00AF01B001B1012E08BA072F0828
:1002A000BB3D3008BC3D3108BD3D0830B535B60D0D
:1002B000B70DB80D890B56292708AE002E08F2009D
:1002C0002A088F31DC27803173082000BF007208B4
:1002D000BE003E08B5073F08B63D0030B73DB83D0B
:1002E0002608AE002E08F2002B088F31DC27803163
:1002F00073082000BF007208BE003E08B5073F0823
:10030000B63D0030B73DB83D0830B535B60DB70D38
:10031000B80D890B85292608AE002E08F2002A08A0
:100320008F31DC27803173082000BF007208BE00C7
:100330003E08B5073F08B63D0030B73DB83D270839
:10034000AE002E08F2002C088F31DC2780317308B4
:100350002000BF007208BE003E08BA073F08BB3D40
:100360000030BC3DBD3D2808AE002E08F2002B0831
:100370008F31DC27803173082000BF007208BE0077
:100380003E08BA073F08BB3D0030BC3DBD3D2808D4
:10039000AE002E08F2002C088F31DC278031730864
:1003A0002000BF007208BE003E08AE003F08AF004C
:1003B000B001B1010830AE35AF0DB00DB10D890BF4
:1003C000DB292E08BA072F08BB3D3008BC3D310899
:1003D000BD3D3508AE003608AF003708B00038081C
:1003E000B1001830B136B00CAF0CAE0C890BF2294D
:1003F0002E08BA072F08BB3D3008BC3D3108BD3D73
:100400000830B535B60DB70DB80D890B012A39087E
:100410003407AE00AF01AF0D2E08823EBE00FF30A4
:100420002F3DBF002A2A0130BA35BB0DBC0DBD0DD2
:10043000890B142AB81F1D2A1E2A1F2A3A140130BC
:10044000B535B60DB70DB80D890B202AFF30BE07A4
:10045000FF30BF3DBC1F2D2A2E2A132AB401B81F1E
:10046000322A332A4F2AFF303505AE00FF303605D9
:10047000AF00FF303705B0007F303805B1003108DC
:1004800030042F042E040319462A472A4A2AB401AD
:10049000B40A4F2A3A1C4D2A4E2A4F2A472A3408BA
:1004A0000319532A542A7C2A0130BA070030BB3D75
:1004B0000030BC3D0030BD3D3D1C5F2A602A7C2AD7
:1004C0003A08AE003B08AF003C08B0003D08B10060
:1004D0000130B200B137B00CAF0CAE0CB20B6A2ACF
:1004E0003108BD003008BC002F08BB002E08BA0040
:1004F0000130BE070030BF3D3F08803AAE0080307B
:100500002E02031D852AFF303E02031C882A892AF9
:10051000932A7F302000BD008030BC000030BB003B
:100520000030BA00C22A20003F08803AAE00803076
:100530002E02031D9D2A01303E020318A02AA12A83
:10054000AC2A00302000BD000030BC000030BB00F1
:100550000030BA00B301C22A20003E08AE002E08C7
:10056000B900FF30BA05FF30BB057F30BC05003055
:10057000BD05391CBC2ABD2ABE2ABC173936AE00BF
:100580002E08BD003308AE002E08BD043D08A900AA
:100590003C08A8003B08A7003A08A6000800003065
:1005A0002000DE000030DD000030DC000030DB0029
:1005B0000030E2000030E1000030E0000030DF00F9
:1005C0000030E6000030E5000030E4000030E300D9
:1005D0004E08F5004D08F4004C08F3004B08F200FB
:1005E000013085313C25823175082000AD0074084A
:1005F000AC007308AB007208AA004130A90070304B
:10060000A8000030A7000030A60080317820823199
:1006100020002908C3002808C2002708C1002608B6
:10062000C0008531E925823120004308DE00420800
:10063000DD004108DC004008DB0021003808200014
:100640004B07CF002100390820004C3DD00021008D
:100650003A0820004D3DD10021003B0820004E3DCE
:10066000D2005208F5005108F4005008F3004F087A
:10067000F200013085313C25823175082000AD0043
:100680007408AC007308AB007208AA003F30A900E0
:10069000C030A8000030A7000030A60080317820CC
:1006A000823120002908C3002808C2002708C100A1
:1006B0002608C0008531E925823120004308E20088
:1006C0004208E1004108E0004008DF002100400846
:1006D00020004B02CF002100410820004C3BD000FD
:1006E0002100420820004D3BD1002100430820009A
:1006F0004E3BD2005208F5005108F4005008F300B8
:100700004F08F200013085313C2582317508200008
:10071000AD007408AC007308AB007208AA00413049
:10072000A9002030A8000030A7000030A6008031CA
:100730007820823120002908C3002808C200270839
:10074000C1002608C0008531E92582312000430818
:10075000E6004208E5004108E4004008E3006308C1
:10076000CF006408D0006508D1006608D2006F0889
:10077000D300D401D501D6015608F5005508F40080
:100780005408F3005308F2006208F9006108F80009
:100790006008F7005F08F60087316727823172082A
:1007A00020005B07D70073085C3DD80074085D3DEE
:1007B000D90075085E3DDA005708CF075808D03DCC
:1007C0005908D13D5A08D23D5208EA005108E900C3
:1007D0005008E8004F08E7006708CF006808D0001D
:1007E0006908D1006A08D2000830D300D237D10C92
:1007F000D00CCF0CD30BF62B5208EA005108E900BD
:100800005008E8004F08E700EA1B142C6A08031D93
:10081000152C6908031D152C6808031D152CFF30C5
:100820006702031C142C152C1E2C0030EA0000302B
:10083000E9000030E800FF30E700342CEA1F2B2CE1
:1008400002306702FF30683BFF30693BFF306A3B94
:1008500003182B2C2C2C342CFF30EA00FF30E9003D
:10086000FF30E8000130E7002100380820004B0786
:10087000CF002100390820004C3DD00021003A086B
:1008800020004D3DD10021003B0820004E3DD2000C
:1008900052082100BB00200051082100BA002000AE
:1008A00050082100B90020004F082100B800BB1BF0
:1008B000662C3B08031D672C3A08031D672CA130EA
:1008C00038020F30393B031C662C672C6F2C00302C
:1008D000BB000030BA000F30B900A030B8002000D3
:1008E0004E082100C30020004D082100C200200056
:1008F0004C082100C10020004B082100C00020004E
:100900006A08CE006908CD006808CC006708CB00F3
:1009100008002100A801A90100302000A900003032
:10092000A8000330A700E830A60021003708200007
:10093000AD00210036082000AC0021003508200061
:10094000AB00210034082000AA0086315E268431E5
:1009500020002908CE002808CD002708CC00260852
:10096000CB008231CF22843120004C082100A90025
:1009700020004B082100A8003008A0003108A10089
:100980003208A2003308A3002808A4002908A50003
:100990000030A51BFF30A600A7002408A0072508EB
:1009A000A13D2608A23D2708A33D2308B300220845
:1009B000B2002108B1002008B000B31BEA2C3308B4
:1009C000031DEB2C3208031DEB2C01303102031CFC
:1009D000EA2CEB2CF32C0030B3000030B2000030D6
:1009E000B100FF30B00000302000A7000030A600AA
:1009F0000330A500E830A40087312E278431210080
:100A00003008200024072100AA0031082000253DDD
:100A10002100AB002B08803AA00080302002031D8B
:100A2000132D01302A020318162D172D1B2D21001E
:100A3000AA01AB012E2D21002B08803AA0008030A6
:100A40002002031D252DFF302A02031C282D292DED
:100A50002E2DFF302100AA000030AB0021002A0813
:100A60002000EB0021002B082000EC00890D893BC1
:100A70008909ED00EE0008002000A00020080319FD
:100A8000422D432D572DF51F462D472D572D720909
:100A9000A2007309A3007409A4007509A500A20AA5
:100AA0000319A30A0319A40A0319A50A5F2D7508DF
:100AB000A5007408A4007308A3007208A2007508BA
:100AC000740473047204031D662D672D702D0030AD
:100AD000F5000030F4000030F3000030F200E82DA3
:100AE0009630F6007608A100802D0130F6007608D9
:100AF000A1070130A536A40CA30CA20C890B7A2DFA
:100B0000FE302505031D852D862D752D9A2D01306E
:100B1000F6007608A1070130A2070030A33D00309F
:100B2000A43D0030A53D0130A536A40CA30CA20CB9
:100B3000890B942DFF302505031D9F2DA02D872D9A
:100B4000AA2D0130A1020130A235A30DA40DA50DDF
:100B5000890BA42DA41BAD2DAE2DB42D0230210286
:100B60000318B32DB42DA12D2118B72DB82DC02DEC
:100B7000FF30A205FF30A3057F30A405FF30A50597
:100B80000310A10C2108F600F701F801F901183053
:100B9000F635F70DF80DF90D890BC82D7608A2046E
:100BA0007708A3047808A4047908A5042008031989
:100BB000DA2DDB2DE02DF51FDE2DDF2DE02DA51725
:100BC0002508F5002408F4002308F3002208F200A9
:100BD000080003102000420D430DC4004408CA0061
:100BE0004A08031DF42DF52DFE2D0030C300003002
:100BF000C2000030C1000030C0005D2E4008C400BB
:100C00004108C5004208C6004308C7001F30C73668
:100C1000C60CC50CC40C890B072E4408C800480834
:100C2000C900C217FF30C005FF30C105FF30C20543
:100C30000030C3059630CA02CA1F1F2E202E382E40
:100C40004A08803A973E0318262E272E282EF52D87
:100C50000130C336C20CC10CC00C890B292E0130E7
:100C6000C4004408CA07031D362E372E282E4D2EE9
:100C700020304A02031C3D2E3E2E482EF52D013019
:100C8000C035C10DC20DC30D890B402E0130CA0203
:100C90004A08031D4C2E4D2E3F2E49080319512E94
:100CA000522E5D2EC009C109C209C309C00A031929
:100CB000C10A0319C20A0319C30A08000030200040
:100CC000B9000030B8000030B7000030B600EF01C6
:100CD000EF0A2D08031D772E2C08031D772E2B08F5
:100CE000031D772EFB302A020318772E782E852ECF
:100CF0002D082C042B042A0403197F2E802E852E08
:100D00007A03031D842E852E9A2E0030B900003000
:100D1000B8000030B7000030B60000302100B70046
:100D20000030B6000030B5000030B4002000EF0104
:100D3000FA01B62E2D08F5002C08F4002B08F3005C
:100D40002A08F2000030F9000030F800CB30F7003C
:100D50007330F6008631D326863175082000B9003D
:100D60007408B8007308B7007208B6003608260287
:100D7000AE003708273BAF003808283BB0003908E1
:100D8000293BB1003108B5003008B4002F08B3008A
:100D90002E08B2003508A9003408A8003308A700BF
:100DA0003208A600080000302000A4000030A30094
:100DB0000030A2000030A1007508740473047204AE
:100DC0000319E32EE42E252FA501A50AF22E0130EA
:100DD000F235F30DF40DF50D890BE82E0130A0006E
:100DE0002008A507F51FF52EF62EE72E0130A135B8
:100DF000A20DA30DA40D890BF72E75087902031D12
:100E00000B2F74087802031D0B2F73087702031D44
:100E10000B2F72087602031C0E2F0F2F182F72084B
:100E2000F6027308F73B7408F83B7508F93B211488
:100E30000130F536F40CF30CF20C890B192F01304C
:100E4000A502031D242F252FF62E2408F5002308C4
:100E5000F4002208F3002108F2000800200027080F
:100E6000F5002608F4002508F3002408F2000030FD
:100E7000F9000030F8000030F7001530F600873137
:100E80006727873175082000AF007408AE0073082B
:100E9000AD007208AC002C08A8002D08A9002E088F
:100EA000AA002F08AB000830AB36AA0CA90CA80C7E
:100EB000890B542F2B08AF002A08AE002908AD007B
:100EC0002808AC002D08A5002C08A400080000305C
:100ED0002000A3000030A2000030A1000030A000DC
:100EE000721C732F742F7D2F76082000A0077708BF
:100EF000A13D7808A23D7908A33D0130F635F70DF4
:100F0000F80DF90D890B7E2F0130F536F40CF30C3A
:100F1000F20C890B852F7508740473047204031D89
:100F2000922F932F702F20002308F5002208F40041
:100F30002108F3002008F200080070302100990019
:100F4000E0308B000530910092019301940105304F
:100F500095002000980199010530250093000C3080
:100F60009A009E0101309D003F3020009B0004301C
:100F70009C00093022009D0021008C0123008C017F
:100F8000013021008D0023008D0108008431892467
:100F9000873120006C082100AF0020006B08210081
:100FA000AE002E080339AC00AC0E25001A08210053
:100FB0002C06CF392C0625009A0021002F08AD0001
:100FC0002E08AC00AD36AC0CAD36AC0C2C082500B0
:100FD0009800080087319D27873120001814873139
:100FE000C627873121004408031DF72FF82FF22F61
:100FF000C401C40AEF2F80314D287334CB34003440
:101000000034003400342034413400340034C0341F
:0E1010003F3400340034703441340134003475
:101F98000134FE0012001E00FE0BCE2F0034E83480
:101FA800033400340034E83403340034003401349A
:101FB8002000A400A001A1017208F400F501740832
:101FC800A2007508A300241CEA2FEB2FEF2F22088C
:101FD800A0072308A13D0130A235A30D890BF02FDE
:101FE8000310A40C2408031DFA2FFB2FE72F210848
:081FF800F3002008F2000800CC
:020000040001F9
:04000E00A4C9FFFC86
:00000001FF
